:100000000C9460010C9488010C9488010C94F809FC
:100010000C94F8090C94F8090C94E1090C948801EB
:100020000C9488010C9488010C9488010C9488012C
:100030000C9488010C9488010C9488010C9488011C
:100040000C9497090C9488010C9465090C943F0951
:100050000C9488010C9488010C9488010C948801FC
:100060000C9488010C94880100407A10F35A00A087
:10007000724E18090010A5D4E80000E87648170071
:1000800000E40B54020000CA9A3B000000E1F505B1
:10009000000080969800000040420F000000A086FB
:1000A00001000000102700000000E803000000002D
:1000B0006400000000000A000000000001000000D1
:1000C00000002C76D888DC674F0823DFC1DFAE59EB
:1000D000E1B1B796E5E3E453C63AE651997696E87E
:1000E000E6C28426EB898C9B62ED407C6FFCEFBC02
:1000F0009C9F40F2BAA56FA5F490055A2AF75C932D
:100100006B6CF9676DC11BFCE0E40D47FEF520E662
:10011000B500D0ED902E0300943577050080841E45
:10012000080000204E0A000000C80C333333330FA0
:10013000986E12831141EF8D2114893BE65516CF3D
:10014000FEE6DB18D1844B381BF77C1D901DA4BB49
:10015000E424203284725E228100C9F124ECA1E5FE
:100160003D2700000000240027002A0000000008AE
:10017000000201000003040700000000000000006E
:10018000005EBCE2613FDD83C29C7E20A3FD1F4177
:100190009DC3217FFCA2401E5F01E3BD3E6082DC67
:1001A000237D9FC1421CFEA0E1BF5D0380DE3C6257
:1001B000BEE0025CDF81633D7C22C09E1D43A1FF47
:1001C0004618FAA427799BC584DA3866E5BB590737
:1001D000DB856739BAE406581947A5FB7826C49A27
:1001E000653BD987045AB8E6A7F91B45C6987A2417
:1001F000F8A6441A99C7257B3A6486D85B05E7B907
:100200008CD2306EEDB3510F4E10F2AC2F7193CDF6
:10021000114FADF3702ECC92D38D6F31B2EC0E50E6
:10022000AFF1134DCE90722C6D33D18F0C52B0EED6
:10023000326C8ED0530DEFB1F0AE4C1291CF2D73C6
:10024000CA947628ABF517490856B4EA6937D58BB6
:100250005709EBB536688AD495CB2977F4AA4816A6
:10026000E9B7550B88D6346A2B7597C94A14F6A896
:10027000742AC896154BA9F7B6E80A54D7896B3586
:1002800000000000250028002B00000000002300D3
:1002900026002900040404040404040402020202E7
:1002A0000202030303030303010204081020408039
:1002B000010204081020010204081020ED0A721146
:1002C00011241FBECFEFD8E0DEBFCDBF23E0A4EAEC
:1002D000B2E001C01D92A33FB207E1F712E0A0E037
:1002E000B1E0E6E8F0E302C005900D92A43AB10750
:1002F000D9F711E0CFE5D1E004C02197FE010E94BB
:100300003E16CE35D107C9F70E94E70B0C9436187C
:100310000C940000E2E1F3E0A089B18982E08C93C3
:10032000A485B5851C92A685B78587E68C93108E2B
:10033000A489B58986E08C93A289B3898C91806168
:100340008C93A289B3898C9188608C93A289B3899C
:100350008C9180688C930288F389E02D80818F7D59
:10036000808308951092DD031092DC031092DB036A
:100370001092DA031092D9031092D8038DEC90E01A
:100380009093DF038093DE039091CE03963108F0C3
:1003900047C025E530E03093D9032093D8032BECF8
:1003A00030E03093DB032093DA0320E930E0309330
:1003B000DD032093DC032091680084E0983048F04E
:1003C00031E09E3008F430E081E001C0880F3A95BA
:1003D000EAF7822B809368002DE630E0983050F0E9
:1003E0002BE630E09E3030F02CE630E0963110F015
:1003F00030E020E03093D6032093D503292F30E05E
:10040000983008F03DC081E001C0880F9A95EAF766
:100410008093D7038091DE039091DF030197F1F77A
:100420008091DC039091DD03892B49F1E091100369
:10043000F091110383E0E23CF80709F1309739F0BD
:10044000A389B4899C918589809589238C93809117
:10045000E0038E7F8093E00310920F0310920E034F
:1004600082EC93E09093110380931003E091D50305
:10047000F091D60380819091D703892B80830895D2
:100480009E3040F42850310981E001C0880F2A9540
:10049000EAF7BECF2E503109F7CF0895AF92BF9241
:1004A000CF92DF92EF92FF920F931F93CF93DF9340
:1004B0006C017B018B01040F151FEB015E01AE186F
:1004C000BF08C017D10759F06991D601ED91FC9191
:1004D0000190F081E02DC6010995892B79F7C501BE
:1004E000DF91CF911F910F91FF90EF90DF90CF9010
:1004F000BF90AF900895FC01538D448D252F30E0BF
:10050000842F90E0821B930B541710F0CF96089520
:1005100001970895FC01918D828D981761F0A28D4D
:10052000AE0FBF2FB11D5D968C91928D9F5F9F7313
:10053000928F90E008958FEF9FEF0895FC01918DC9
:10054000828D981731F0828DE80FF11D858D90E036
:1005500008958FEF9FEF0895FC01918D228D892FD3
:1005600090E0805C9F4F821B91098F7399270895BB
:1005700082E193E00E94AC0221E0892B09F420E0A3
:10058000822F089580E090E0892B29F00E94B80224
:1005900081110C9400000895FC01A48DA80FB92FBF
:1005A000B11DA35ABF4F2C91848D90E001968F739B
:1005B0009927848FA689B7892C93A089B1898C91BA
:1005C000837080648C93938D848D981306C0028809
:1005D000F389E02D80818F7D80830895EF92FF92D3
:1005E0000F931F93CF93DF93EC0181E0888F9B8D56
:1005F0008C8D98131AC0E889F989808185FF15C010
:100600009FB7F894EE89FF896083E889F989808132
:100610008370806480839FBF81E090E0DF91CF9101
:100620001F910F91FF90EF900895F62E0B8D10E023
:100630000F5F1F4F0F731127E02E8C8D8E110CC092
:100640000FB607FCFACFE889F989808185FFF5CFDD
:10065000CE010E94CC02F1CFEB8DEC0FFD2FF11DEE
:10066000E35AFF4FF0829FB7F8940B8FEA89FB891A
:1006700080818062CFCFCF93DF93EC01888D882378
:10068000B9F0AA89BB89E889F9898C9185FD03C0F5
:10069000808186FD0DC00FB607FCF7CF8C9185FFDA
:1006A000F2CF808185FFEDCFCE010E94CC02E9CF51
:1006B000DF91CF9108953FB7F8948091E90290912E
:1006C000EA02A091EB02B091EC0226B5A89B05C00E
:1006D0002F3F19F00196A11DB11D3FBFBA2FA92FC1
:1006E000982F8827BC01CD01620F711D811D911DBE
:1006F00042E0660F771F881F991F4A95D1F708952A
:100700008F929F92AF92BF92CF92DF92EF92FF9221
:100710004B015C010E945B036B017C010E945B0347
:100720006C197D098E099F09683E7340810591050A
:10073000A8F321E0821A9108A108B10888EEC80E3A
:1007400083E0D81EE11CF11C81149104A104B104C2
:1007500029F7FF90EF90DF90CF90BF90AF909F90E0
:100760008F9008954115510529F4EAE7F0E0808162
:100770008F7780836A307105B9F0CB01880F991F9C
:10078000880F991F807267706860682B88E10FB6C8
:10079000F894A895809360000FBE60936000E0E637
:1007A000F0E0808180648083232BD9F483B7817F3C
:1007B000846083BFF89483B7816083BF85B7806608
:1007C00085BF8F7D85BF7894889583B78E7F83BFE3
:1007D0007894452B29F4EAE7F0E0808180688083F3
:1007E000089583B7817F846083BFF89483B7816065
:1007F00083BF7894889583B78E7F83BF7894E9CF41
:10080000DC012C911196ED91FC91F8948181822B61
:1008100081839281322F30959323928387E090E0F9
:100820000197F1F781818323818383E290E001972F
:10083000F1F790817894EFECF0E03197F1F79223A3
:1008400081E009F480E00895EF92FF920F931F93E7
:10085000CF93DF937C0108E010E0C0E0D1E0C70156
:100860000E9400048111CD2BDD0F01501109B9F751
:100870008C2FDF91CF911F910F91FF90EF900895F2
:10088000FC0190810180F281E02D292F209560FFED
:1008900014C0F8948281822382838181892B818391
:1008A000A3E2B0E01197F1F78281982B92837894BC
:1008B00087ED90E00197F1F70895F8948281822303
:1008C00082838181892B8183AFEFB0E01197F1F7AB
:1008D0008281982B928378948FE090E0EBCFDF9227
:1008E000EF92FF920F931F93CF93DF93EC01D62EDD
:1008F000E42E08E010E0FF24F39461E08D2D8F21B9
:1009000009F460E0CE010E944004FF0C015011097F
:10091000A1F7E11010C0F894E981FA8191818881F2
:10092000809589238183E981FA81928188818095EC
:10093000892382837894DF91CF911F910F91FF904B
:10094000EF90DF900895EF92FF920F931F93CF9354
:10095000DF938C017B0140E065E50E946F04E701B5
:1009600088E0E80EF11C699140E0C8010E946F0424
:10097000CE15DF05C1F7DF91CF911F910F91FF9049
:10098000EF900895FC0190810180F281E02DF894B0
:100990008181292F20958223818378943DE743E04C
:1009A00050E0315029F1DA011197F1F78081892364
:1009B000C1F3F8948281822382838181892B818390
:1009C0007894ABE7B7E01197F1F7F894818182232F
:1009D0008183A3E1B1E01197F1F78081982381E051
:1009E00009F080E07894E3E6F6E03197F1F70895B6
:1009F00080E00895EF92FF920F931F93CF93DF93C0
:100A00007C018B01CFEAD3E08D819E810E94C204DC
:100A1000B7018D819E810E94A30440E06EEB8D8121
:100A20009E810E946F048D819E810E942404F801A2
:100A300080838D819E810E942404F80181838D81B1
:100A40009E810E942404F80182838D819E810E94F0
:100A50002404F80183838D819E810E942404F8017F
:100A600084838D819E810E942404F80185838D8179
:100A70009E810E942404F80186838D819E810E94BC
:100A80002404F80187838D819E810E942404F8014B
:100A900080878D819E81DF91CF911F910F91FF9073
:100AA000EF900C94C204CF93DF93EB010E94FA0401
:100AB000DE0189E090E0815039F0ED91E927F0E026
:100AC000E058FE4F9491F7CF81E02885291380E00C
:100AD000DF91CF910895CF93DF93CDB7DEB72997FC
:100AE0000FB6F894DEBF0FBECDBFBE016F5F7F4F64
:100AF0000E945305882331F08D818F33A9F020F4B3
:100B00008F31A1F080E007C08F3521F08F37D1F70A
:100B10008CE001C08BE029960FB6F894DEBF0FBEC3
:100B2000CDBFDF91CF9108958AE0F5CF89E0F3CF73
:100B30008F929F92AF92BF92CF92DF92EF92FF92ED
:100B40000F931F93CF93DF93CDB7DEB729970FB6DF
:100B5000F894DEBF0FBECDBF5C01BE016F5F7F4F5B
:100B60000E945305882309F49AC009811A81F5016E
:100B700080818232B1F18832A1F18031C9F5F884E7
:100B80008F812F2D281B330BB901072E000C880BEA
:100B9000990B0E94E5134B015C016F2D70E090E012
:100BA00080E00E94E3139B01AC01C501B4010E94E7
:100BB00082156B017C01B80175956795072E000CB5
:100BC000880B990B0E94E51320E030E040E85EE3DB
:100BD0000E9415159B01AC01C701B6010E941615B4
:100BE0002CC08D818F33D1F1C0F48F3109F446C010
:100BF000C701B60129960FB6F894DEBF0FBECDBF70
:100C0000DF91CF911F910F91FF90EF90DF90CF90E8
:100C1000BF90AF909F908F9008958F3589F08F3758
:100C200039F7B801110F880B990B0E94E51320E0EA
:100C300030E040E85DE30E9420146B017C01D8CFD6
:100C4000B80175956795072E000C880B990B0E94CB
:100C5000E51320E030E040E05EE3EDCFB8017595AC
:100C6000679575956795072E000C880B990B0E9468
:100C7000E51320E030E040E85EE3DDCFB80123E09B
:100C8000759567952A95E1F7072E000C880B990B4F
:100C90000E94E51320E030E040E05FE3CCCFC12CC0
:100CA000D12C8EEFE82E82ECF82EA2CFFF920F937C
:100CB0001F93CF93DF93CDB7DEB729970FB6F89484
:100CC000DEBF0FBECDBF8C01BE016F5F7F4F0E94A4
:100CD0005305F82E882309F457C0F801808180312C
:100CE00009F452C08FE78D838091B4039091B503CE
:100CF0000E94C204B8018091B4039091B5030E9490
:100D0000A30440E06EE48091B4039091B5030E9487
:100D10006F0440E06B818091B4039091B5030E9411
:100D20006F0440E06C818091B4039091B5030E9400
:100D30006F04F8018081803141F040E06D81809145
:100D4000B4039091B5030E946F048091B403909115
:100D5000B5030E94C2044091AF0368E48091B403DC
:100D60009091B5030E946F048091AF03882331F006
:100D70006AE070E080E090E00E9480038091B4031C
:100D80009091B5030E94C2048F2D29960FB6F89456
:100D9000DEBF0FBECDBFDF91CF911F910F91FF90AE
:100DA000089520911003309111032817390771F429
:100DB00090910E0380910F03981741F0E0910E037C
:100DC000F0E0EC55FD4F808190E008958FEF9FEFAC
:100DD0000895EF92FF920F931F93CF93DF93DC015F
:100DE0005C96ED90FC905D97E114F10479F481E05C
:100DF00090E013969C938E93129790E080E0DF91A1
:100E0000CF911F910F91FF90EF9008955196ED9122
:100E1000FC91529750968C915097982F90950FB7C0
:100E20005E962C915E97122F127021FD6095F894BA
:100E30002081112319F1282B2083E7012197F1F755
:100E400028E0462F50E0308160FF1AC0382B3083F5
:100E5000E7012197F1F7BA0175956795215089F758
:100E6000112381F08081892380830FBF5C968D914F
:100E70009C910197F1F781E090E0C1CF2923DCCF6D
:100E80003923E5CF9081892BEFCF2091100330914A
:100E900011032817390771F480910F0320910E0375
:100EA00090E0805C9F4F821B910960E470E00E949B
:100EB000F415089590E080E008952091100330919A
:100EC000110328173907B9F490910E0380910F038D
:100ED000981789F0E0910E03F0E0EC55FD4F80810A
:100EE00020910E0330E02F5F3F4F2F733327209365
:100EF0000E0390E008958FEF9FEF089590E080E05B
:100F0000089582EC93E00E944507892B51F082EC12
:100F100093E00E945D07682F82E193E00E94EE0259
:100F2000F0CF0895FB0101900020E9F73197AF0160
:100F3000461B570BDC01ED91FC910280F381E02D03
:100F400009948F929F92AF92BF92CF92DF92EF92CD
:100F5000FF920F931F93CF93DF93CDB7DEB7A19787
:100F60000FB6F894DEBF0FBECDBF6C01990FEE082F
:100F7000FF08F7FE4BC06DE282EC93E00E94E906A9
:100F80008C0122273327A9012C193D094E095F093D
:100F900019A2CE0181967C019AE0892E912CA12C78
:100FA000B12CCA01B901A50194010E940816605D27
:100FB000F70162937F01211531054105510589F73C
:100FC00090E080E0309729F0BF0182EC93E00E942E
:100FD0009207080F191F6AE671E082EC93E00E9405
:100FE0009207800F911FA1960FB6F894DEBF0FBE37
:100FF000CDBFDF91CF911F910F91FF90EF90DF90C8
:10100000CF90BF90AF909F908F900895A7019601C9
:1010100019A28E010F5D1F4F8AE0C82ED12CE12C42
:10102000F12CCA01B901A70196010E940816605D62
:10103000F80162938F01211531054105510589F7AA
:10104000309739F0BF0182EC93E00E9492078C0147
:10105000C2CF10E000E0BFCF0F931F93CF93DF9379
:10106000EC010E9492078C016AE671E0CE010E94B9
:101070009207800F911FDF91CF911F910F910895DB
:101080000F931F93CF93DF93EC0188819981009791
:1010900059F02A813B812617370730F081E0DF9134
:1010A000CF911F910F9108958B016F5F7F4F0E9429
:1010B0006917009759F0998388831B830A832C81D1
:1010C0003D81232B59F7FC011082E8CF80E0E7CF68
:1010D000CF93DF93EC0188819981009711F00E94F2
:1010E000E016198218821D821C821B821A82DF91EF
:1010F000CF910895EF92FF920F931F93CF93DF93B9
:10110000EC01FB01E080F180E114F10411F10481B4
:10111000158101151105A9F08C819D81080F191FFA
:10112000B801CE010E944008882399F028813981B6
:101130008C819D81B701820F931F0E942F181D8300
:101140000C83CE01DF91CF911F910F91FF90EF9013
:101150000895CE010E946808F4CFEF92FF920F939A
:101160001F93CF93DF93EC017B018A01BA010E94A8
:10117000400881110BC0CE010E946808CE01DF91AA
:10118000CF911F910F91FF90EF9008951D830C83D5
:10119000B701888199810E942F18F0CFEF92FF92BA
:1011A0000F931F93CF93DF93CDB7DEB7A1970FB601
:1011B000F894DEBF0FBECDBF7C01CB01BA01F701B1
:1011C0001182108213821282158214828E010F5FA7
:1011D0001F4F22E044E00E948E110097C9F0FC01ED
:1011E00001900020E9F73197AF01481B590BBC0172
:1011F000C7010E94AD08A1960FB6F894DEBF0FBEDE
:10120000CDBFDF91CF911F910F91FF90EF90089587
:10121000C7010E946808EFCFFB01DC0111961C9208
:101220001E9213961C921E92129715961C921E9255
:1012300014978617970749F06081718161157105D0
:1012400021F0448155810C94AD080895FC01118270
:1012500010821382128215821482FB0101900020F9
:10126000E9F73197AF01461B570B0C94AD08FC0111
:1012700080819181009711F00C94E01608951F92DF
:101280000F920FB60F9211242F933F934F935F93BA
:101290006F937F938F939F93AF93BF93EF93FF933E
:1012A00082E193E00E94CC02FF91EF91BF91AF9158
:1012B0009F918F917F916F915F914F913F912F916E
:1012C0000F900FBE0F901F9018951F920F920FB6A0
:1012D0000F9211242F938F939F93EF93FF93E0919D
:1012E0002203F09123038081E0912803F0912903E8
:1012F00082FD1BC0908180912B038F5F8F732091A3
:101300002C03821741F0E0912B03F0E0EE5EFC4FDE
:10131000958F80932B03FF91EF919F918F912F9148
:101320000F900FBE0F901F9018958081F4CF1F92E1
:101330000F920FB60F9211242F933F938F939F9389
:10134000AF93BF938091E5029091E602A091E702EE
:10135000B091E8023091E40223E0230F2D3758F5D5
:101360000196A11DB11D2093E4028093E5029093A4
:10137000E602A093E702B093E8028091E90290911F
:10138000EA02A091EB02B091EC020196A11DB11D01
:101390008093E9029093EA02A093EB02B093EC02EF
:1013A000BF91AF919F918F913F912F910F900FBE61
:1013B0000F901F90189526E8230F0296A11DB11DCE
:1013C000D2CF1F920F920FB60F9211248F930FB6A8
:1013D000F894A895809160008861809360001092D5
:1013E00060000FBE8F910F900FBE0F901F90189549
:1013F0001F920F920FB60F9211242F933F934F938A
:101400005F936F937F938F939F93AF93BF93EF936C
:10141000FF93E0911003F0911103309749F0A685F6
:10142000B7858585968D91FF14C09C918923A1F481
:10143000FF91EF91BF91AF919F918F917F916F91AC
:101440005F914F913F912F910F900FBE0F901F9082
:1014500018959C91892361F7A389B4899C9185890A
:10146000809589238C93868997890197F1F7608D00
:10147000718DA685B785558538E020E0CB010197B1
:10148000F1F7822F90E095958795282F4C91452371
:1014900009F02068315091F7868D81FD209580916B
:1014A0000F0390E001968F73992730910E03381740
:1014B00099F0A0910F03B0E0AC55BD4F2C938093F1
:1014C0000F03828D938D0197F1F7A389B4898C91D5
:1014D0009589892B8C93ACCF868D8160868FF1CFD7
:1014E00090E0FC01E459FE4F2491FC01E855FD4FCA
:1014F0003491FC01EC56FD4FE491EE23C9F0222318
:1015000039F0233001F1A8F4213019F1223029F10A
:10151000F0E0EE0FFF1FE058FD4FA591B4918FB79B
:10152000F894EC91611126C030953E233C938FBF17
:1015300008952730A9F02830C9F0243049F7809168
:1015400080008F7D03C0809180008F778093800022
:10155000DFCF84B58F7784BDDBCF84B58F7DFBCFA4
:101560008091B0008F778093B000D2CF8091B0008F
:101570008F7DF9CF3E2BDACFCF93DF9390E0FC0144
:10158000E855FD4F24918C569D4FFC018491882392
:10159000D1F090E0880F991FFC01EE59FE4FA59104
:1015A000B491FC01E058FD4FC591D49161110EC07A
:1015B0009FB7F8948C91E22FE0958E238C9328812D
:1015C000E223E8839FBFDF91CF9108958FB7F8940E
:1015D000EC91E22BEC938FBFF6CFCF92DF92EF929C
:1015E000FF92109215031092140398EEC92E93E007
:1015F000D92EE12CF12CC0921603D0921703E09261
:101600001803F09219038AE491E0909313038093F6
:10161000120385EC90E090931F0380931E0384ECEB
:1016200090E0909321038093200380EC90E09093CE
:1016300023038093220381EC90E090932503809311
:10164000240382EC90E0909327038093260386EC9A
:1016500090E0909329038093280310922B0310921B
:101660002C0310922D0310922E0360E082E00E9462
:10167000BC0AEAEAF2E0E491E093E103E6E9F2E091
:10168000E491F0E0EE0FFF1FE657FD4F8591949136
:101690009093E3038093E2031092EC031092EE0325
:1016A0001092ED031092EB031092EA031092E903FB
:1016B0001092E8031092E7031092E6031092E503FC
:1016C0001092E4031092C5031092C403C092C603A3
:1016D000D092C703E092C803F092C9038CE591E071
:1016E0009093C3038093C2031092D9031092D8033E
:1016F0001092DB031092DA031092DD031092DC03E8
:101700001092DF031092DE036091E0036E7F6D7F25
:101710006093E0036695617081E0682788E00E942D
:10172000700A61E088E00E94BC0AE0EBF2E0E4911C
:10173000E093D203ECE9F2E0E491F0E0EE0FFF1F5A
:10174000E058FD4F859194919093D4038093D303F7
:1017500060E087E00E94BC0A8091E00381FD04C044
:1017600061E087E00E94700A87E08093CE03EFEA91
:10177000F2E0E491E093CF03EBE9F2E0E491F0E0F2
:10178000EE0FFF1FE657FD4F859194919093D10383
:101790008093D0038DE492E09093C1038093C003C3
:1017A00081EE93E09093B5038093B4031092B3035A
:1017B0001092AF0389E08093B00381E08093B1037E
:1017C0008093B203FF90EF90DF90CF900895CF9376
:1017D000DF93CDB7DEB7CD5DD1090FB6F894DEBF8C
:1017E0000FBECDBF789484B5826084BD84B581601E
:1017F00084BD85B5826085BD85B5816085BD8091DC
:101800006E00816080936E00109281008091810053
:10181000826080938100809181008160809381004B
:10182000809180008160809380008091B10084600D
:101830008093B1008091B00081608093B00080916E
:101840007A00846080937A0080917A00826080932D
:101850007A0080917A00816080937A0080917A008A
:10186000806880937A001092C100E091B403F091F7
:10187000B503138615861486128611861086178284
:1018800016821582148213821092B303CC24C3945F
:10189000BB24B3940091B4031091B503D8011D96F5
:1018A000AC90AA2029F1F80113861586148680E0F1
:1018B000A8014D5F5F4FDE011A96055F1F4F9D0126
:1018C0007D01FA019191AF01F90191939F010417F4
:1018D0001507B9F78823D1F098E080E0915009F41A
:1018E0009FC4ED91E827F0E0E058FE4F8491F6CFD9
:1018F000C8010E94C204811131C4D8011B961C92F8
:101900001B971D961C921D971C961C9288E391E0D4
:101910000E94560680E391E00E94560688E291E01C
:101920000E94560680E291E00E94560688E191E00E
:101930000E94560680E191E00E94560688E091E000
:101940000E94560680E091E00E9456060E94B20175
:101950000E948A016DE671E082E193E00E942C080A
:1019600060E27EE480E090E00E9480036EE771E038
:1019700082E193E00E942C0882E193E00E943B0305
:1019800067E871E082EC93E00E942C0864E670E066
:1019900080E090E00E9480030E94810761E971E08D
:1019A00082EC93E00E942C0882E193E00E947B028B
:1019B0000E94A10760ED77E080E090E00E94800344
:1019C0000E9481076FEA71E082EC93E00E942C088C
:1019D00060ED77E080E090E00E94800382E193E098
:1019E0000E947B020E94A1070E9481076DEC71E0BA
:1019F00082EC93E00E942C0860ED77E080E090E0BC
:101A00000E9480030E9481070E94B2010E948A0105
:101A10006DE671E082E193E00E942C0860E27EE4D2
:101A200080E090E00E9480036EE771E082E193E045
:101A30000E942C0882E193E00E943B0367E871E07A
:101A400082EC93E00E942C0864E670E080E090E075
:101A50000E9480030E94810761E971E082EC93E0BB
:101A60000E942C0882E193E00E947B020E94A10761
:101A700060ED77E080E090E00E9480030E948107A3
:101A80006FEA71E082EC93E00E942C0860ED77E051
:101A900080E090E00E94800382E193E00E947B025C
:101AA0000E94A1070E9481076AED71E082EC93E039
:101AB0000E942C0860ED77E080E090E00E948003B7
:101AC0000E9481076DEC71E082EC93E00E942C088B
:101AD00060ED77E080E090E00E9480030E94810743
:101AE0008091B4039091B5030E94C20440E06CEC75
:101AF0008091B4039091B5030E946F044091AF03AD
:101B000064E48091B4039091B5030E946F048091C6
:101B1000B103882389F08091B0038A3009F4D0C3DF
:101B20008B3009F4D2C3893009F0D4C36EE570E07C
:101B300080E090E00E94800388E391E00E94980595
:101B40006B017C01C0920A03D0920B03E0920C035C
:101B5000F0920D0380E391E00E94980560930603E4
:101B600070930703809308039093090388E291E040
:101B70000E9498056093020370930303809304030B
:101B80009093050380E291E00E9498056093FE0225
:101B90007093FF02809300039093010388E191E02A
:101BA0000E9498056093FA027093FB028093FC02F6
:101BB0009093FD0280E191E00E9498056093F60207
:101BC0007093F7028093F8029093F90288E091E015
:101BD0000E9498056093F2027093F3028093F402DE
:101BE0009093F50280E091E00E9498056093EE02E8
:101BF0007093EF028093F0029093F102B701A60177
:101C0000CE0188529F4F0E94CE084091060350910A
:101C100007036091080370910903CE018E529F4F14
:101C20000E94CE0840910203509103036091040387
:101C300070910503CE0184539F4F0E94CE084091BE
:101C4000FE025091FF026091000370910103CE01EA
:101C50008A539F4F0E94CE084091FA025091FB0296
:101C60006091FC027091FD02CE0180549F4F0E9452
:101C7000CE084091F6025091F7026091F8027091FF
:101C8000F902CE0186549F4F0E94CE084091F20285
:101C90005091F3026091F4027091F502CE018C54E0
:101CA0009F4F0E94CE084091EE025091EF0260914A
:101CB000F0027091F102CE0182559F4F0E94CE0832
:101CC00065EE71E0CE0188559F4F0E9426096EE1B6
:101CD00072E0CE018E559F4F0E94260966E272E0A7
:101CE000CE0184569F4F0E9426096EE272E0CE011B
:101CF0008A569F4F0E94260966E372E0CE01805704
:101D00009F4F0E9426096EE372E0CE0186579F4FD7
:101D10000E94260966E472E0CE018C579F4F0E9414
:101D200026096EE472E0CE0182589F4F0E94260978
:101D30006DEA71E0CE0188589F4F0E942609BE01CE
:101D400068587F4FCE0101960E940C09BE01625572
:101D50007F4FCE010A960E940C09BE0162587F4F48
:101D6000CE0142960E940C09BE016C547F4FCE01F9
:101D700048960E940C09BE016C577F4FCE014E96CB
:101D80000E940C09BE0166547F4FCE0184960E94CA
:101D90000C09BE0166577F4FCE018A960E940C093E
:101DA000BE0160547F4FCE01C0960E940C09BE0157
:101DB00060577F4FCE01C6960E940C09BE016A5340
:101DC0007F4FCE01CC960E940C09BE016A567F4F10
:101DD000CE018E5B9F4F0E940C09BE0164537F4F62
:101DE000CE01885B9F4F0E940C09BE0164567F4F55
:101DF000CE01825B9F4F0E940C09BE016E527F4F45
:101E0000CE018C5A9F4F0E940C09BE016E557F4F28
:101E1000CE01865A9F4F0E940C09BE0168527F4F27
:101E2000CE01805A9F4F0E940C09BE0168557F4F1A
:101E3000CE0184599F4F0E940C09BE0164597F4F07
:101E4000CE018A599F4F0E940C09BE01605A7F4FF4
:101E5000CE018A599F4F0E947A08BE01665A7F4F71
:101E60000E947A08BE016C5A7F4F0E947A08BE0118
:101E7000625B7F4F0E947A08BE01685B7F4F0E94C1
:101E80007A08BE016E5B7F4F0E947A08BE01645CD7
:101E90007F4F0E947A08BE016A5C7F4F0E947A08D9
:101EA000BE01605D7F4F0E947A08BE01665D7F4F74
:101EB0000E947A08BE016C5D7F4F0E947A08BE01C5
:101EC000625E7F4F0E947A08BE01685E7F4F0E946B
:101ED0007A08BE016E5E7F4F0E947A08BE01665F7F
:101EE0007F4F0E947A08BE016F5F7F4F0E947A0881
:101EF000BC01CE018E589F4F0E940C09CE018A5919
:101F00009F4F0E943709CE0184599F4F0E94370985
:101F1000CE01805A9F4F0E943709CE01865A9F4FAB
:101F20000E943709CE018C5A9F4F0E943709CE017B
:101F3000825B9F4F0E943709CE01885B9F4F0E94B2
:101F40003709CE018E5B9F4F0E943709CE01CC9698
:101F50000E943709CE01C6960E943709CE01C0966D
:101F60000E943709CE018A960E943709CE018496D5
:101F70000E943709CE014E960E943709CE0148963D
:101F80000E943709CE0142960E943709CE010A9677
:101F90000E943709CE0101960E94370960ED77E073
:101FA00080E090E00E94800366E572E082EC93E0BE
:101FB0000E942C0860ED77E080E090E00E948003B2
:101FC0000E948107E8964EAD5FADE897E4966EAD4E
:101FD0007FADE49782EC93E00E944E026AE671E0E6
:101FE00082EC93E00E94920760ED77E080E090E061
:101FF0000E9480030E94810762E672E082EC93E017
:102000000E942C0860E777E180E090E00E94800366
:102010000E94810762E772E082EC93E00E942C0844
:1020200068EE73E080E090E00E9480030E948107E8
:102030006CE671E082EC93E00E942C086EE772E09F
:1020400082EC93E00E942C080E9481076CE271E010
:1020500080E090E00E9480036CE671E082EC93E007
:102060000E942C0807E410E030E020E050E040E05F
:1020700069E070E08DEE92E00E94B2030150110918
:1020800099F76AE872E082E193E00E942C08CE01A1
:102090008E589F4F0E943709CE0188589F4F0E944B
:1020A0003709CE0182589F4F0E943709CE018C57C5
:1020B0009F4F0E943709CE0186579F4F0E943709D4
:1020C000CE0180579F4F0E943709CE018A569F4FFD
:1020D0000E943709CE0184569F4F0E943709CE01D6
:1020E0008E559F4F0E943709CE0188559F4F0E9401
:1020F0003709CE0182559F4F0E943709CE018C547B
:102100009F4F0E943709CE0186549F4F0E94370986
:10211000CE0180549F4F0E943709CE018A539F4FB2
:102120000E943709CE0184539F4F0E943709CE0188
:102130008E529F4F0E943709CE0188529F4F0E94B6
:10214000370980E090E0892B09F45ECC0E94B80248
:10215000882309F459CC0E94000056CC40E060EF7F
:10216000C8010E946F04912CEE24E394FF24F394A1
:10217000C8010E940004D82EC8010E940004B1E0EA
:10218000DB1215C08130A9F5E0E4EF1508F08BCB28
:10219000D8011B96AC921B97A11002C01D96CC9241
:1021A000F8018381882309F47ECB81E081CBE92D7E
:1021B000F0E0D81214C0D8011B968C911B97F8162A
:1021C000B0F4AE0FBF1F13968C918E2191F4D12CD9
:1021D000B8E0BF1518F0D8011C96FC92AF2CE00FA8
:1021E000F11F83819E2D9095892383830AC08F11CF
:1021F000EECFF801E90DF11D83818E298383DD2463
:10220000D3946D2DC8010E944004F394EE0C19F490
:102210009394EE24E394B7E0B91508F0A9CFB4CFB6
:102220009989981337CB8091AF03811126C0809193
:10223000B4039091B5030E94C204B7018091B40326
:102240009091B5030E94A30440E064EB8091B40335
:102250009091B5030E946F048091B4039091B503EF
:102260000E940004182F8091B4039091B5030E943E
:10227000C204111102C0B092AF03BE016F5F7F4F65
:10228000C7010E94FA041091B0038A85803139F1A8
:10229000C7010E946B05811750F48091B0038093B1
:1022A000B0038091B3038F5F8093B303F3CA8A8531
:1022B000803111F489E0F3CFC7010E946B05EFCFA5
:1022C0006CEB70E080E090E035CC67E771E080E097
:1022D00090E030CC6EEE72E080E090E02BCC1A30D3
:1022E000E0F6E8CF8CE591E09093C3038093C203BE
:1022F0008091100390911103825C934071F4E091FE
:10230000D503F091D60390818091D70380958923DE
:10231000808310921103109210030895EF920F938F
:102320001F93CF93DF93E80134E047FD34E1042E9F
:10233000000C550B57FF03C0519541955109E32EF1
:10234000022F242FAE010E94AC11CE01DF91CF915C
:102350001F910F91EF900895A9E0B0E0E2EBF1E159
:102360000C94E4146A01F22EB02E102FFBE3AF2E72
:10237000A01608F41BE31F5F012F27E0AE014F5F9B
:102380005F4F0E940B13BC018981982F9970913087
:1023900009F43FC09BE2E1FC04C09E2D9170E0FC7B
:1023A0003AC05E2D5071E82FE87083FF46C084E08C
:1023B000911101C083E0EF2DE81B8F1508F0E0E0DC
:1023C000D6018E2F20E2552351F1992329F0D60111
:1023D0009C93C60101966C0196012D5F3F4FE2FE72
:1023E00024C08EE4D6018C9391E411969C931197AE
:1023F00012968C93D9018E2F90E281111BC0E20FAF
:10240000F32FF11D10828EEF9FEF2996ECE00C94D4
:1024100000159DE2C6CF90E2C4CF2D93815081116B
:10242000FCCFCE0ED11CE0E0D0CF8EE6D6018C934F
:1024300091E6DBCF9D938150E0CF482F447082FF1F
:102440003DC084E0911101C083E08F1510F4EF2DA1
:10245000E81BD6018E2F20E2552309F1992329F09C
:10246000D6019C93C60101966C0196012D5F3F4FEA
:10247000E2FE1BC089E4D6018C938EE411968C9306
:10248000119786E412968C93D9018E2F90E28823BF
:1024900009F4B5CF9D938150FACF2D9381508111CE
:1024A000FCCFCE0ED11CE0E0D9CF89E6D6018C93CB
:1024B0008EE611968C93119786E6E4CF9B0177FF09
:1024C00002C030E020E0A1E0B0E0911102C0B0E035
:1024D000A0E0F9013196AE0FBF1F8B2C912CBB20D1
:1024E00009F461C05401EFEFAE1ABE0AAA0DBB1D7C
:1024F000FA161B0619F014F04F2D4A1B511188C013
:10250000E3FC59C07601A42FB0E2A1114FC0C40E64
:10251000D11C992309F45BC040E0D6011196F60165
:1025200090836D01552309F448C0012F060F9A814D
:10253000582F507184FF03C0913309F401501016D5
:102540000CF047C0093008F008E0EEE2FE2E5B0117
:10255000A01AB10885019194819491082F3F320708
:1025600029F4D601FC92F60131966F0162177307C8
:1025700094F1021713077CF5DB01A21BB30BAA240D
:10258000A394B12CAC0EBD1EAA0DBB1D11968C914F
:1025900021503109D601119628153905F4F0F601BC
:1025A00080836D01DBCFB12CA12CA0CFF701B193BB
:1025B0007F01A150AACF9111B0CFD601942F50E343
:1025C00002C05D9391509111FCCFC40ED11C40E02C
:1025D000ACCF01E0BACF80E3DBCF6217730731F4F1
:1025E000963388F4953311F4552369F0F60180830E
:1025F000FD01842F90E2811108C0A40FB11D1C922F
:1026000090E080E002CF81E3F1CF91938150F3CF4E
:10261000911183CF8ACF283008F027E03327DA01E1
:10262000990F311D87FD916000966105710539F4A0
:1026300032602E5F3D9330E32A95E1F708959F3F86
:1026400030F080387105610509F03C5F3C5F3D93D7
:10265000913008F08068911DDF93CF931F930F9303
:10266000FF92EF92192F987F9695E92F9695969560
:10267000E90FFF27EE53FF4F99273327EE24FF245E
:10268000A701E70105900894079428F4360FE71E88
:10269000F81E491F511D660F771F881F991F06944A
:1026A000A1F70590079428F4E70EF81E491F561F5E
:1026B000C11D770F881F991F661F0694A1F705900B
:1026C000079428F4F80E491F561FC71FD11D880F05
:1026D000991F661F771F0694A1F70590079420F4B1
:1026E000490F561FC71FD81F990F661F771F881FD6
:1026F0000694A9F784911095177041F0D695C79567
:1027000057954795F794E7941A95C1F7E8E6F0E0F6
:1027100068941590159135916591959105907FE29A
:102720007395E118F10A430B560BC90BD009C0F79A
:10273000E10CF11E431F561FC91FD01D7EF47033DC
:1027400011F48A95E6CFE894015030F0080F0AF4AE
:102750000027021708F4202F2395022F7A3328F040
:1027600079E37D932A95E9F710C07D932A9589F640
:10277000069497956795379517951794E118F10A80
:10278000430B560BC90BD00998F023957E91739596
:102790007A3308F070E37C932013B8F77E91706170
:1027A0007D9330F0839571E37D9370E32A95E1F793
:1027B0001124EF90FF900F911F91CF91DF919927F6
:1027C00087FD90950895E89409C097FB3EF4909595
:1027D0008095709561957F4F8F4F9F4F9923A9F0FA
:1027E000F92F96E9BB279395F69587957795679589
:1027F000B795F111F8CFFAF4BB0F11F460FF1BC0CD
:102800006F5F7F4F8F4F9F4F16C0882311F096E95F
:1028100011C0772321F09EE8872F762F05C066230D
:1028200071F096E8862F70E060E02AF09A95660FC6
:10283000771F881FDAF7880F9695879597F908957F
:102840000E9433140C94A4140E94961438F00E9431
:102850009D1420F0952311F00C948D140C94931476
:1028600011240C94D8140E94B51470F3959FC1F3F1
:10287000950F50E0551F629FF001729FBB27F00D2E
:10288000B11D639FAA27F00DB11DAA1F649F662783
:10289000B00DA11D661F829F2227B00DA11D621FD2
:1028A000739FB00DA11D621F839FA00D611D221F8C
:1028B000749F3327A00D611D231F849F600D211D70
:1028C000822F762F6A2F11249F5750409AF0F1F0F3
:1028D00088234AF0EE0FFF1FBB1F661F771F881F5C
:1028E00091505040A9F79E3F510580F00C948D14F3
:1028F0000C94D8145F3FE4F3983ED4F38695779513
:102900006795B795F795E7959F5FC1F7FE2B880F01
:10291000911D9695879597F9089597F99F6780E897
:1029200070E060E008959FEF80EC089500240A9421
:102930001616170618060906089500240A9412169A
:102940001306140605060895092E0394000C11F4CD
:10295000882352F0BB0F40F4BF2B11F460FF04C07A
:102960006F5F7F4F8F4F9F4F089557FD9058440FD3
:10297000551F59F05F3F71F04795880F97FB991FDE
:1029800061F09F3F79F0879508951216130614069B
:10299000551FF2CF4695F1DF08C016161706180628
:1029A000991FF1CF86957105610508940895E89403
:1029B000BB2766277727CB0197F908952F923F927F
:1029C0004F925F926F927F928F929F92AF92BF923F
:1029D000CF92DF92EF92FF920F931F93CF93DF93EB
:1029E000CDB7DEB7CA1BDB0B0FB6F894DEBF0FBE48
:1029F000CDBF09942A88398848885F846E847D8495
:102A00008C849B84AA84B984C884DF80EE80FD8096
:102A10000C811B81AA81B981CE0FD11D0FB6F8940C
:102A2000DEBF0FBECDBFED0108955058BB27AA27CA
:102A30000E942D150C94A4140E94961438F00E9444
:102A40009D1420F039F49F3F19F426F40C9493144C
:102A50000EF4E095E7FB0C948D14E92F0E94B51459
:102A600058F3BA17620773078407950720F079F4C3
:102A7000A6F50C94D7140EF4E0950B2EBA2FA02DCA
:102A80000B01B90190010C01CA01A0011124FF271B
:102A9000591B99F0593F50F4503E68F11A16F04016
:102AA000A22F232F342F4427585FF3CF4695379515
:102AB0002795A795F0405395C9F77EF41F16BA0BDA
:102AC000620B730B840BBAF09150A1F0FF0FBB1F88
:102AD000661F771F881FC2F70EC0BA0F621F731FD1
:102AE000841F48F4879577956795B795F7959E3F2E
:102AF00008F0B0CF9395880F08F09927EE0F9795BF
:102B0000879508950E9496150C94A4140E949D1414
:102B100058F00E94961440F029F45F3F29F00C947D
:102B20008D1451110C94D8140C9493140E94B51464
:102B300068F39923B1F3552391F3951B550BBB27EC
:102B4000AA2762177307840738F09F5F5F4F220F31
:102B5000331F441FAA1FA9F335D00E2E3AF0E0E828
:102B600032D091505040E695001CCAF72BD0FE2F72
:102B700029D0660F771F881FBB1F26173707480706
:102B8000AB07B0E809F0BB0B802DBF01FF279358BE
:102B90005F4F3AF09E3F510578F00C948D140C94E1
:102BA000D8145F3FE4F3983ED4F386957795679504
:102BB000B795F7959F5FC9F7880F911D96958795F3
:102BC00097F90895E1E0660F771F881FBB1F621712
:102BD00073078407BA0720F0621B730B840BBA0BD0
:102BE000EE1F88F7E095089597FB072E16F40094E2
:102BF00007D077FD09D00E942A1607FC05D03EF4C5
:102C0000909581959F4F0895709561957F4F089598
:102C1000A1E21A2EAA1BBB1BFD010DC0AA1FBB1FE0
:102C2000EE1FFF1FA217B307E407F50720F0A21B52
:102C3000B30BE40BF50B661F771F881F991F1A94BF
:102C400069F760957095809590959B01AC01BD01E9
:102C5000CF010895AA1BBB1B51E107C0AA1FBB1FD0
:102C6000A617B70710F0A61BB70B881F991F5A9518
:102C7000A9F780959095BC01CD010895EE0FFF1F37
:102C80000590F491E02D09940F931F93CF93DF9358
:102C90008230910510F482E090E0E091F103F09130
:102CA000F20330E020E0B0E0A0E0309799F4211585
:102CB000310509F44AC0281B390B24303105D8F5F9
:102CC0008A819B816115710589F1FB019383828360
:102CD000FE0111C0408151810281138148175907BB
:102CE000E0F04817590799F4109761F012960C9389
:102CF000129713961C933296CF01DF91CF911F91BB
:102D00000F9108950093F1031093F203F4CF21156E
:102D1000310551F04217530738F0A901DB019A0140
:102D2000BD01DF01F801C1CFEF01F9CF9093F203AC
:102D30008093F103CDCFFE01E20FF31F81939193B6
:102D40002250310939832883D7CF2091EF03309166
:102D5000F003232B41F42091420130914301309341
:102D6000F0032093EF0320914001309141012115A0
:102D7000310541F42DB73EB74091440150914501D2
:102D8000241B350BE091EF03F091F003E217F307FA
:102D9000A0F42E1B3F0B2817390778F0AC014E5FCB
:102DA0005F4F2417350748F04E0F5F1F5093F00315
:102DB0004093EF03819391939FCFF0E0E0E09CCFAD
:102DC000CF93DF930097E9F0FC01329713821282D0
:102DD000A091F103B091F203ED0130E020E01097F3
:102DE000A1F420813181820F931F2091EF03309154
:102DF000F0032817390709F061C0F093F003E0935E
:102E0000EF03DF91CF910895EA01CE17DF07E8F5D0
:102E10004A815B819E0141155105B1F7E901FB83B0
:102E2000EA8349915991C40FD51FEC17FD0761F44E
:102E3000808191810296840F951FE901998388838F
:102E4000828193819B838A83F0E0E0E012968D91EA
:102E50009C9113970097B9F52D913C911197CD0155
:102E60000296820F931F2091EF033091F0032817F1
:102E7000390739F6309751F51092F2031092F103A9
:102E8000B093F003A093EF03BCCFD383C283408100
:102E90005181840F951FC817D90761F44E5F5F4FAA
:102EA00088819981480F591F518340838A819B8172
:102EB000938382832115310509F0B0CFF093F2039B
:102EC000E093F1039ECFFD01DC01C0CF138212829B
:102ED000D7CFB0E0A0E0EFE6F7E10C94E0148C016E
:102EE000009751F4CB010E9444168C01C801CDB764
:102EF000DEB7E0E10C94FC14FC01E60FF71F9C0127
:102F000022503109E217F30708F49DC0D901CD9191
:102F1000DC911197C617D70798F0C530D10530F36B
:102F2000CE0104978617970708F3C61BD70B229785
:102F3000C193D1936D937C93CF010E94E016D6CFBD
:102F40005B01AC1ABD0A4C018C0E9D1EA091F103D1
:102F5000B091F203512C412CF12CE12C109731F55A
:102F60008091EF039091F0038815990509F05CC0FA
:102F70004616570608F058C08091400190914101D3
:102F8000009741F48DB79EB740914401509145019F
:102F9000841B950BE817F90708F055C0F093F00370
:102FA000E093EF03F90171836083A0CF8D919C9131
:102FB000119712966C90129713967C901397A81500
:102FC000B90559F56C0142E0C40ED11CCA14DB04EA
:102FD00020F1AC014A195B09DA011296159780F0CD
:102FE0006282738251834083D9016D937C93E11493
:102FF000F10471F0D7011396FC93EE93129776CFFC
:1030000022968C0F9D1FF90191838083F301EFCFEE
:10301000F093F203E093F10369CF4816590608F4E0
:103020002C017D01D3019ACFCB010E9444167C0173
:10303000009749F0AE01B8010E942618C8010E940D
:10304000E016870153CF10E000E050CFFB01DC0118
:1030500002C001900D9241505040D8F70895FB01F5
:10306000DC0101900D920020E1F7089511E0CFE519
:10307000D1E004C0FE010E943E162196C036D10761
:06308000C9F7F894FFCF30
:1030860028FF55BC6818037428FF9EDB68180330B8
:1030960028FFE2C0681803D028FF4DF2681803C362
:1030A60028FF77BE6818030828FF5BBD6818035918
:1030B60028FF18E16D1801BD28FF49E16D1801E5EB
:1030C6000000F303800000000000EE024E027B02C7
:1030D6003B03AC028A029E0200000000E9064E0293
:1030E6007E074D0245075D07D1060D0A00436F6E48
:1030F6006669672053494D3930302E2E2E00446FB5
:103106006E65212E2E2E0041542B43474154543FC9
:103116000041542B53415042523D332C312C224313
:103126004F4E54595045222C2247505253220041AB
:10313600542B53415042523D332C312C2241504E98
:10314600222C22696E7465726E6574220041542BBE
:1031560053415042523D312C310041542B4353438D
:103166004C4B3D320041542B48545450504152412F
:103176003D2255524C222C22687474703A2F2F76B9
:1031860070733734383534362E6F76682E6E657424
:103196002F312E7068703F64617461313D00266482
:1031A600617461323D002664617461333D002664BA
:1031B600617461343D002664617461353D002664A6
:1031C600617461363D002664617461373D00266492
:1031D600617461383D0041542B48545450494E495E
:1031E600540041542B48545450414354494F4E3D8A
:1031F600300041542B4854545052454144004154E8
:103206002B485454505445524D00577374616C65A5
:103216006D20706F203630302073656B756E64617B
:0432260063680000D9
:00000001FF
